{
  "contractName": "MyContract",
  "abi": [
    {
      "inputs": [],
      "stateMutability": "nonpayable",
      "type": "constructor"
    },
    {
      "inputs": [
        {
          "internalType": "string",
          "name": "_name",
          "type": "string"
        },
        {
          "internalType": "uint8",
          "name": "_age",
          "type": "uint8"
        },
        {
          "internalType": "bool",
          "name": "_is_alnafi_student",
          "type": "bool"
        }
      ],
      "name": "setData",
      "outputs": [],
      "stateMutability": "nonpayable",
      "type": "function"
    },
    {
      "inputs": [],
      "name": "getData",
      "outputs": [
        {
          "internalType": "string",
          "name": "",
          "type": "string"
        },
        {
          "internalType": "uint8",
          "name": "",
          "type": "uint8"
        },
        {
          "internalType": "bool",
          "name": "",
          "type": "bool"
        }
      ],
      "stateMutability": "view",
      "type": "function",
      "constant": true
    }
  ],
  "bytecode": "0x608060405234801561001057600080fd5b506040518060400160405280600881526020017f4d617368686f6f640000000000000000000000000000000000000000000000008152506000908051906020019061005c929190610098565b506019600160006101000a81548160ff021916908360ff16021790555060018060016101000a81548160ff02191690831515021790555061019c565b8280546100a49061013b565b90600052602060002090601f0160209004810192826100c6576000855561010d565b82601f106100df57805160ff191683800117855561010d565b8280016001018555821561010d579182015b8281111561010c5782518255916020019190600101906100f1565b5b50905061011a919061011e565b5090565b5b8082111561013757600081600090555060010161011f565b5090565b6000600282049050600182168061015357607f821691505b602082108114156101675761016661016d565b5b50919050565b7f4e487b7100000000000000000000000000000000000000000000000000000000600052602260045260246000fd5b6104d5806101ab6000396000f3fe608060405234801561001057600080fd5b50600436106100365760003560e01c80633bc5de301461003b5780637c2584211461005b575b600080fd5b610043610077565b60405161005293929190610359565b60405180910390f35b61007560048036038101906100709190610296565b610133565b005b60606000806000600160009054906101000a900460ff1660018054906101000a900460ff168280546100a8906103ff565b80601f01602080910402602001604051908101604052809291908181526020018280546100d4906103ff565b80156101215780601f106100f657610100808354040283529160200191610121565b820191906000526020600020905b81548152906001019060200180831161010457829003601f168201915b50505050509250925092509250909192565b83836000919061014492919061017f565b5081600160006101000a81548160ff021916908360ff160217905550806001806101000a81548160ff02191690831515021790555050505050565b82805461018b906103ff565b90600052602060002090601f0160209004810192826101ad57600085556101f4565b82601f106101c657803560ff19168380011785556101f4565b828001600101855582156101f4579182015b828111156101f35782358255916020019190600101906101d8565b5b5090506102019190610205565b5090565b5b8082111561021e576000816000905550600101610206565b5090565b60008135905061023181610471565b92915050565b60008083601f84011261024957600080fd5b8235905067ffffffffffffffff81111561026257600080fd5b60208301915083600182028301111561027a57600080fd5b9250929050565b60008135905061029081610488565b92915050565b600080600080606085870312156102ac57600080fd5b600085013567ffffffffffffffff8111156102c657600080fd5b6102d287828801610237565b945094505060206102e587828801610281565b92505060406102f687828801610222565b91505092959194509250565b61030b816103b3565b82525050565b600061031c82610397565b61032681856103a2565b93506103368185602086016103cc565b61033f81610460565b840191505092915050565b610353816103bf565b82525050565b600060608201905081810360008301526103738186610311565b9050610382602083018561034a565b61038f6040830184610302565b949350505050565b600081519050919050565b600082825260208201905092915050565b60008115159050919050565b600060ff82169050919050565b60005b838110156103ea5780820151818401526020810190506103cf565b838111156103f9576000848401525b50505050565b6000600282049050600182168061041757607f821691505b6020821081141561042b5761042a610431565b5b50919050565b7f4e487b7100000000000000000000000000000000000000000000000000000000600052602260045260246000fd5b6000601f19601f8301169050919050565b61047a816103b3565b811461048557600080fd5b50565b610491816103bf565b811461049c57600080fd5b5056fea2646970667358221220a7415b5f78243275cebdcd4ec0f4b6beb2669aa2185414e07d5df18d2e38d87064736f6c63430008000033",
  "immutableReferences": {},
  "source": "// SPDX-License-Identifier: MIT\r\n// solium-disable linebreak-style\r\npragma solidity >= 0.4.22 < 0.9.0;\r\n\r\ncontract MyContract {\r\n    string name;\r\n    uint8 age;\r\n    bool is_alnafi_student;\r\n\r\n    constructor() {\r\n        name = \"Mashhood\";\r\n        age  = 25;\r\n        is_alnafi_student = true;\r\n    }\r\n\r\n    function setData(string calldata _name, uint8 _age, bool _is_alnafi_student) public {\r\n        name = _name;\r\n        age = _age;\r\n        is_alnafi_student = _is_alnafi_student;\r\n    }\r\n\r\n    function getData() view public returns(string memory, uint8, bool) {\r\n        return(name, age, is_alnafi_student);\r\n    }\r\n}",
  "sourcePath": "E:\\3 - Al Nafi\\Blockchain\\Labs\\unit_testing\\ex01\\contracts\\MyContract.sol",
  "compiler": {
    "name": "solc",
    "version": "0.8.0+commit.c7dfd78e.Emscripten.clang"
  },
  "schemaVersion": "3.4.3",
  "updatedAt": "2022-01-19T14:52:22.568Z",
  "networkType": "ethereum",
  "devdoc": {
    "kind": "dev",
    "methods": {},
    "version": 1
  },
  "userdoc": {
    "kind": "user",
    "methods": {},
    "version": 1
  }
}