{
  "contractName": "EscrowService",
  "abi": [
    {
      "inputs": [
        {
          "internalType": "address payable",
          "name": "_seller",
          "type": "address"
        },
        {
          "internalType": "address",
          "name": "_buyyer",
          "type": "address"
        },
        {
          "internalType": "uint256",
          "name": "_agreed_payment",
          "type": "uint256"
        }
      ],
      "stateMutability": "nonpayable",
      "type": "constructor"
    },
    {
      "inputs": [],
      "name": "agreed_payment",
      "outputs": [
        {
          "internalType": "uint256",
          "name": "",
          "type": "uint256"
        }
      ],
      "stateMutability": "view",
      "type": "function",
      "constant": true
    },
    {
      "inputs": [],
      "name": "getSellerAddress",
      "outputs": [
        {
          "internalType": "address",
          "name": "",
          "type": "address"
        }
      ],
      "stateMutability": "view",
      "type": "function",
      "constant": true
    },
    {
      "inputs": [
        {
          "internalType": "address payable",
          "name": "_seller",
          "type": "address"
        }
      ],
      "name": "setSellerAddress",
      "outputs": [],
      "stateMutability": "nonpayable",
      "type": "function"
    },
    {
      "inputs": [
        {
          "internalType": "address",
          "name": "_buyyer",
          "type": "address"
        }
      ],
      "name": "setBuyyerAddress",
      "outputs": [],
      "stateMutability": "nonpayable",
      "type": "function"
    },
    {
      "inputs": [],
      "name": "getBuyyerAddress",
      "outputs": [
        {
          "internalType": "address",
          "name": "",
          "type": "address"
        }
      ],
      "stateMutability": "view",
      "type": "function",
      "constant": true
    },
    {
      "inputs": [],
      "name": "getAgreementPayment",
      "outputs": [
        {
          "internalType": "uint256",
          "name": "",
          "type": "uint256"
        }
      ],
      "stateMutability": "view",
      "type": "function",
      "constant": true
    },
    {
      "inputs": [],
      "name": "get_deposit",
      "outputs": [],
      "stateMutability": "payable",
      "type": "function",
      "payable": true
    },
    {
      "inputs": [],
      "name": "payment_release",
      "outputs": [],
      "stateMutability": "payable",
      "type": "function",
      "payable": true
    }
  ],
  "bytecode": "0x608060405234801561001057600080fd5b506040516108ee3803806108ee83398181016040528101906100329190610101565b826000806101000a81548173ffffffffffffffffffffffffffffffffffffffff021916908373ffffffffffffffffffffffffffffffffffffffff16021790555081600160006101000a81548173ffffffffffffffffffffffffffffffffffffffff021916908373ffffffffffffffffffffffffffffffffffffffff160217905550806002819055505050506101e3565b6000815190506100d18161019e565b92915050565b6000815190506100e6816101b5565b92915050565b6000815190506100fb816101cc565b92915050565b60008060006060848603121561011657600080fd5b6000610124868287016100d7565b9350506020610135868287016100c2565b9250506040610146868287016100ec565b9150509250925092565b600061015b82610174565b9050919050565b600061016d82610174565b9050919050565b600073ffffffffffffffffffffffffffffffffffffffff82169050919050565b6000819050919050565b6101a781610150565b81146101b257600080fd5b50565b6101be81610162565b81146101c957600080fd5b50565b6101d581610194565b81146101e057600080fd5b50565b6106fc806101f26000396000f3fe60806040526004361061007b5760003560e01c8063c6faaf9d1161004e578063c6faaf9d14610109578063cc187c1b14610134578063cd8a05ff1461015f578063f59d8864146101885761007b565b806303800bbd1461008057806310e61481146100ab57806384b09e86146100b5578063a12df12e146100e0575b600080fd5b34801561008c57600080fd5b50610095610192565b6040516100a2919061061e565b60405180910390f35b6100b3610198565b005b3480156100c157600080fd5b506100ca61028f565b6040516100d791906105a3565b60405180910390f35b3480156100ec57600080fd5b506101076004803603810190610102919061049c565b6102b8565b005b34801561011557600080fd5b5061011e6102fb565b60405161012b91906105a3565b60405180910390f35b34801561014057600080fd5b50610149610325565b604051610156919061061e565b60405180910390f35b34801561016b57600080fd5b5061018660048036038101906101819190610473565b61032f565b005b610190610373565b005b60025481565b60008054906101000a900473ffffffffffffffffffffffffffffffffffffffff1673ffffffffffffffffffffffffffffffffffffffff163373ffffffffffffffffffffffffffffffffffffffff1614610226576040517f08c379a000000000000000000000000000000000000000000000000000000000815260040161021d906105be565b60405180910390fd5b60008054906101000a900473ffffffffffffffffffffffffffffffffffffffff1673ffffffffffffffffffffffffffffffffffffffff166108fc479081150290604051600060405180830381858888f1935050505015801561028c573d6000803e3d6000fd5b50565b60008060009054906101000a900473ffffffffffffffffffffffffffffffffffffffff16905090565b806000806101000a81548173ffffffffffffffffffffffffffffffffffffffff021916908373ffffffffffffffffffffffffffffffffffffffff16021790555050565b6000600160009054906101000a900473ffffffffffffffffffffffffffffffffffffffff16905090565b6000600254905090565b80600160006101000a81548173ffffffffffffffffffffffffffffffffffffffff021916908373ffffffffffffffffffffffffffffffffffffffff16021790555050565b3373ffffffffffffffffffffffffffffffffffffffff16600160009054906101000a900473ffffffffffffffffffffffffffffffffffffffff1673ffffffffffffffffffffffffffffffffffffffff1614610403576040517f08c379a00000000000000000000000000000000000000000000000000000000081526004016103fa906105de565b60405180910390fd5b3460025414610447576040517f08c379a000000000000000000000000000000000000000000000000000000000815260040161043e906105fe565b60405180910390fd5b565b60008135905061045881610698565b92915050565b60008135905061046d816106af565b92915050565b60006020828403121561048557600080fd5b600061049384828501610449565b91505092915050565b6000602082840312156104ae57600080fd5b60006104bc8482850161045e565b91505092915050565b6104ce8161064a565b82525050565b60006104e1601183610639565b91507f796f75277265206e6f742073656c6c65720000000000000000000000000000006000830152602082019050919050565b6000610521601183610639565b91507f796f75277265206e6f74206275797965720000000000000000000000000000006000830152602082019050919050565b6000610561602083610639565b91507f6b696e646c79206465706f736974207468652061677265656420616d6f756e746000830152602082019050919050565b61059d8161068e565b82525050565b60006020820190506105b860008301846104c5565b92915050565b600060208201905081810360008301526105d7816104d4565b9050919050565b600060208201905081810360008301526105f781610514565b9050919050565b6000602082019050818103600083015261061781610554565b9050919050565b60006020820190506106336000830184610594565b92915050565b600082825260208201905092915050565b60006106558261066e565b9050919050565b60006106678261066e565b9050919050565b600073ffffffffffffffffffffffffffffffffffffffff82169050919050565b6000819050919050565b6106a18161064a565b81146106ac57600080fd5b50565b6106b88161065c565b81146106c357600080fd5b5056fea2646970667358221220abd5a6a04e9fb3c5a4bb6952364a1525d431ee08ef8d2ddf257d152e306ba1fd64736f6c63430008000033",
  "immutableReferences": {},
  "source": "// SPDX-License-Identifier: MIT\r\n// solium-disable linebreak-style\r\npragma solidity >= 0.4.22 < 0.9.0;\r\n\r\ncontract EscrowService {\r\n    \r\n    address payable private seller;\r\n    address private buyyer;\r\n    uint public agreed_payment;\r\n    \r\n    constructor(address payable _seller, address _buyyer, uint _agreed_payment) {\r\n        seller = _seller;\r\n        buyyer = _buyyer;\r\n        agreed_payment = _agreed_payment;\r\n    }\r\n    \r\n    function getSellerAddress() public view returns(address) {\r\n        return seller;\r\n    } \r\n\r\n    function setSellerAddress(address payable _seller) public {\r\n        seller = _seller;\r\n    }\r\n\r\n    function setBuyyerAddress(address _buyyer) public {\r\n        buyyer = _buyyer;\r\n    }\r\n\r\n    function getBuyyerAddress() public view returns(address) {\r\n        return buyyer;\r\n    }\r\n\r\n    function getAgreementPayment() public view returns(uint) {\r\n        return agreed_payment;\r\n    }\r\n\r\n    function get_deposit() public payable {\r\n        require(buyyer == msg.sender, \"you're not buyyer\");\r\n        require(agreed_payment == msg.value, \"kindly deposit the agreed amount\");\r\n    }\r\n    \r\n    function payment_release() public payable {\r\n        require(msg.sender == seller, \"you're not seller\");\r\n        seller.transfer( address(this).balance );\r\n    }\r\n}",
  "sourcePath": "E:\\3 - Al Nafi\\Blockchain\\Labs\\unit_testing\\ex02\\contracts\\EscrowService.sol",
  "compiler": {
    "name": "solc",
    "version": "0.8.0+commit.c7dfd78e.Emscripten.clang"
  },
  "schemaVersion": "3.4.3",
  "updatedAt": "2022-01-25T15:58:05.942Z",
  "networkType": "ethereum",
  "devdoc": {
    "kind": "dev",
    "methods": {},
    "version": 1
  },
  "userdoc": {
    "kind": "user",
    "methods": {},
    "version": 1
  }
}