{
  "contractName": "AdvertisementAuction",
  "abi": [
    {
      "inputs": [],
      "stateMutability": "nonpayable",
      "type": "constructor"
    },
    {
      "inputs": [
        {
          "internalType": "uint256",
          "name": "_amount",
          "type": "uint256"
        },
        {
          "internalType": "string",
          "name": "_image",
          "type": "string"
        },
        {
          "internalType": "string",
          "name": "_text",
          "type": "string"
        }
      ],
      "name": "set_advertisement_data",
      "outputs": [],
      "stateMutability": "nonpayable",
      "type": "function"
    },
    {
      "inputs": [],
      "name": "get_advertisement_data",
      "outputs": [
        {
          "internalType": "string",
          "name": "",
          "type": "string"
        },
        {
          "internalType": "string",
          "name": "",
          "type": "string"
        }
      ],
      "stateMutability": "view",
      "type": "function",
      "constant": true
    },
    {
      "inputs": [],
      "name": "get_advertisement_image",
      "outputs": [
        {
          "internalType": "string",
          "name": "",
          "type": "string"
        }
      ],
      "stateMutability": "view",
      "type": "function",
      "constant": true
    },
    {
      "inputs": [],
      "name": "get_advertisement_text",
      "outputs": [
        {
          "internalType": "string",
          "name": "",
          "type": "string"
        }
      ],
      "stateMutability": "view",
      "type": "function",
      "constant": true
    },
    {
      "inputs": [],
      "name": "get_contract_owner_addr",
      "outputs": [
        {
          "internalType": "address",
          "name": "",
          "type": "address"
        }
      ],
      "stateMutability": "view",
      "type": "function",
      "constant": true
    }
  ],
  "bytecode": "0x608060405234801561001057600080fd5b50600080819055506040518060400160405280601b81526020017f4164766572746973656d656e742041756374696f6e20496d6167650000000000815250600190805190602001906100639291906100f6565b506040518060400160405280601a81526020017f4164766572746973656d656e742041756374696f6e2054657874000000000000815250600290805190602001906100af9291906100f6565b5033600360006101000a81548173ffffffffffffffffffffffffffffffffffffffff021916908373ffffffffffffffffffffffffffffffffffffffff1602179055506101fa565b82805461010290610199565b90600052602060002090601f016020900481019282610124576000855561016b565b82601f1061013d57805160ff191683800117855561016b565b8280016001018555821561016b579182015b8281111561016a57825182559160200191906001019061014f565b5b509050610178919061017c565b5090565b5b8082111561019557600081600090555060010161017d565b5090565b600060028204905060018216806101b157607f821691505b602082108114156101c5576101c46101cb565b5b50919050565b7f4e487b7100000000000000000000000000000000000000000000000000000000600052602260045260246000fd5b6107cd806102096000396000f3fe608060405234801561001057600080fd5b50600436106100575760003560e01c806319e8099f1461005c57806337e0db5c1461007a5780638611d28314610096578063ac93c95b146100b4578063c5cbe07e146100d2575b600080fd5b6100646100f1565b60405161007191906105ef565b60405180910390f35b610094600480360381019061008f91906104de565b61011b565b005b61009e610191565b6040516100ab919061060a565b60405180910390f35b6100bc610223565b6040516100c9919061060a565b60405180910390f35b6100da6102b5565b6040516100e892919061062c565b60405180910390f35b6000600360009054906101000a900473ffffffffffffffffffffffffffffffffffffffff16905090565b600054851161015f576040517f08c379a000000000000000000000000000000000000000000000000000000000815260040161015690610663565b60405180910390fd5b846000819055508383600191906101779291906103dc565b508181600291906101899291906103dc565b505050505050565b6060600280546101a09061070e565b80601f01602080910402602001604051908101604052809291908181526020018280546101cc9061070e565b80156102195780601f106101ee57610100808354040283529160200191610219565b820191906000526020600020905b8154815290600101906020018083116101fc57829003601f168201915b5050505050905090565b6060600180546102329061070e565b80601f016020809104026020016040519081016040528092919081815260200182805461025e9061070e565b80156102ab5780601f10610280576101008083540402835291602001916102ab565b820191906000526020600020905b81548152906001019060200180831161028e57829003601f168201915b5050505050905090565b606080600160028180546102c89061070e565b80601f01602080910402602001604051908101604052809291908181526020018280546102f49061070e565b80156103415780601f1061031657610100808354040283529160200191610341565b820191906000526020600020905b81548152906001019060200180831161032457829003601f168201915b505050505091508080546103549061070e565b80601f01602080910402602001604051908101604052809291908181526020018280546103809061070e565b80156103cd5780601f106103a2576101008083540402835291602001916103cd565b820191906000526020600020905b8154815290600101906020018083116103b057829003601f168201915b50505050509050915091509091565b8280546103e89061070e565b90600052602060002090601f01602090048101928261040a5760008555610451565b82601f1061042357803560ff1916838001178555610451565b82800160010185558215610451579182015b82811115610450578235825591602001919060010190610435565b5b50905061045e9190610462565b5090565b5b8082111561047b576000816000905550600101610463565b5090565b60008083601f84011261049157600080fd5b8235905067ffffffffffffffff8111156104aa57600080fd5b6020830191508360018202830111156104c257600080fd5b9250929050565b6000813590506104d881610780565b92915050565b6000806000806000606086880312156104f657600080fd5b6000610504888289016104c9565b955050602086013567ffffffffffffffff81111561052157600080fd5b61052d8882890161047f565b9450945050604086013567ffffffffffffffff81111561054c57600080fd5b6105588882890161047f565b92509250509295509295909350565b6105708161069f565b82525050565b600061058182610683565b61058b818561068e565b935061059b8185602086016106db565b6105a48161076f565b840191505092915050565b60006105bc601e8361068e565b91507f536f727279212077652063616e27742061647665727469736520796f752e00006000830152602082019050919050565b60006020820190506106046000830184610567565b92915050565b600060208201905081810360008301526106248184610576565b905092915050565b600060408201905081810360008301526106468185610576565b9050818103602083015261065a8184610576565b90509392505050565b6000602082019050818103600083015261067c816105af565b9050919050565b600081519050919050565b600082825260208201905092915050565b60006106aa826106b1565b9050919050565b600073ffffffffffffffffffffffffffffffffffffffff82169050919050565b6000819050919050565b60005b838110156106f95780820151818401526020810190506106de565b83811115610708576000848401525b50505050565b6000600282049050600182168061072657607f821691505b6020821081141561073a57610739610740565b5b50919050565b7f4e487b7100000000000000000000000000000000000000000000000000000000600052602260045260246000fd5b6000601f19601f8301169050919050565b610789816106d1565b811461079457600080fd5b5056fea26469706673582212205353a295c04be681bed017d2d377cfdadcbc3aa988ed2c4bcc362e72edb516de64736f6c63430008000033",
  "immutableReferences": {},
  "source": "// SPDX-License-Identifier: MIT\r\n// solium-disable linebreak-style\r\npragma solidity >= 0.4.22 < 0.9.0;\r\n\r\ncontract AdvertisementAuction {\r\n    uint amount;\r\n    string image;\r\n    string text;\r\n    address contract_onwer;\r\n    address advrt_owner;\r\n\r\n    constructor() {\r\n        amount = 0;\r\n        image = \"Advertisement Auction Image\";\r\n        text = \"Advertisement Auction Text\";\r\n        contract_onwer = msg.sender;\r\n    }\r\n\r\n    function set_advertisement_data(uint _amount, string calldata _image, string calldata _text) public {\r\n        require(_amount > amount, \"Sorry! we can't advertise you.\");\r\n        amount = _amount;\r\n        image = _image;\r\n        text = _text;\r\n    }\r\n\r\n    function get_advertisement_data() public view returns(string memory, string memory) {\r\n        return(image, text);\r\n    }\r\n\r\n    function get_advertisement_image() public view returns(string memory) {\r\n        return image;\r\n    }\r\n\r\n    function get_advertisement_text() public view returns(string memory) {\r\n        return text;\r\n    }\r\n\r\n    function get_contract_owner_addr() public view returns(address) {\r\n        return contract_onwer;\r\n    }\r\n\r\n}",
  "sourcePath": "E:\\3 - Al Nafi\\Blockchain\\Labs\\unit_testing\\ex03\\contracts\\AdvertisementAuction.sol",
  "compiler": {
    "name": "solc",
    "version": "0.8.0+commit.c7dfd78e.Emscripten.clang"
  },
  "schemaVersion": "3.4.3",
  "updatedAt": "2022-01-26T16:07:42.808Z",
  "networkType": "ethereum",
  "devdoc": {
    "kind": "dev",
    "methods": {},
    "version": 1
  },
  "userdoc": {
    "kind": "user",
    "methods": {},
    "version": 1
  }
}